{
  "_format": "hh-sol-artifact-1",
  "contractName": "RootNFT",
  "sourceName": "contracts/RootNFT.sol",
  "abi": [
    {
      "inputs": [],
      "stateMutability": "nonpayable",
      "type": "constructor"
    },
    {
      "anonymous": false,
      "inputs": [
        {
          "indexed": true,
          "internalType": "address",
          "name": "account",
          "type": "address"
        },
        {
          "indexed": true,
          "internalType": "address",
          "name": "operator",
          "type": "address"
        },
        {
          "indexed": false,
          "internalType": "bool",
          "name": "approved",
          "type": "bool"
        }
      ],
      "name": "ApprovalForAll",
      "type": "event"
    },
    {
      "anonymous": false,
      "inputs": [
        {
          "indexed": false,
          "internalType": "uint8",
          "name": "version",
          "type": "uint8"
        }
      ],
      "name": "Initialized",
      "type": "event"
    },
    {
      "anonymous": false,
      "inputs": [
        {
          "indexed": true,
          "internalType": "address",
          "name": "previousOwner",
          "type": "address"
        },
        {
          "indexed": true,
          "internalType": "address",
          "name": "newOwner",
          "type": "address"
        }
      ],
      "name": "OwnershipTransferred",
      "type": "event"
    },
    {
      "anonymous": false,
      "inputs": [
        {
          "indexed": false,
          "internalType": "address",
          "name": "account",
          "type": "address"
        }
      ],
      "name": "Paused",
      "type": "event"
    },
    {
      "anonymous": false,
      "inputs": [
        {
          "indexed": true,
          "internalType": "address",
          "name": "operator",
          "type": "address"
        },
        {
          "indexed": true,
          "internalType": "address",
          "name": "from",
          "type": "address"
        },
        {
          "indexed": true,
          "internalType": "address",
          "name": "to",
          "type": "address"
        },
        {
          "indexed": false,
          "internalType": "uint256[]",
          "name": "ids",
          "type": "uint256[]"
        },
        {
          "indexed": false,
          "internalType": "uint256[]",
          "name": "values",
          "type": "uint256[]"
        }
      ],
      "name": "TransferBatch",
      "type": "event"
    },
    {
      "anonymous": false,
      "inputs": [
        {
          "indexed": true,
          "internalType": "address",
          "name": "operator",
          "type": "address"
        },
        {
          "indexed": true,
          "internalType": "address",
          "name": "from",
          "type": "address"
        },
        {
          "indexed": true,
          "internalType": "address",
          "name": "to",
          "type": "address"
        },
        {
          "indexed": false,
          "internalType": "uint256",
          "name": "id",
          "type": "uint256"
        },
        {
          "indexed": false,
          "internalType": "uint256",
          "name": "value",
          "type": "uint256"
        }
      ],
      "name": "TransferSingle",
      "type": "event"
    },
    {
      "anonymous": false,
      "inputs": [
        {
          "indexed": false,
          "internalType": "string",
          "name": "value",
          "type": "string"
        },
        {
          "indexed": true,
          "internalType": "uint256",
          "name": "id",
          "type": "uint256"
        }
      ],
      "name": "URI",
      "type": "event"
    },
    {
      "anonymous": false,
      "inputs": [
        {
          "indexed": false,
          "internalType": "address",
          "name": "account",
          "type": "address"
        }
      ],
      "name": "Unpaused",
      "type": "event"
    },
    {
      "inputs": [
        {
          "internalType": "string",
          "name": "_name",
          "type": "string"
        },
        {
          "internalType": "uint256",
          "name": "_price",
          "type": "uint256"
        }
      ],
      "name": "addCategory",
      "outputs": [],
      "stateMutability": "nonpayable",
      "type": "function"
    },
    {
      "inputs": [
        {
          "internalType": "address",
          "name": "account",
          "type": "address"
        },
        {
          "internalType": "uint256",
          "name": "id",
          "type": "uint256"
        }
      ],
      "name": "balanceOf",
      "outputs": [
        {
          "internalType": "uint256",
          "name": "",
          "type": "uint256"
        }
      ],
      "stateMutability": "view",
      "type": "function"
    },
    {
      "inputs": [
        {
          "internalType": "address[]",
          "name": "accounts",
          "type": "address[]"
        },
        {
          "internalType": "uint256[]",
          "name": "ids",
          "type": "uint256[]"
        }
      ],
      "name": "balanceOfBatch",
      "outputs": [
        {
          "internalType": "uint256[]",
          "name": "",
          "type": "uint256[]"
        }
      ],
      "stateMutability": "view",
      "type": "function"
    },
    {
      "inputs": [
        {
          "internalType": "uint256",
          "name": "",
          "type": "uint256"
        }
      ],
      "name": "categories",
      "outputs": [
        {
          "internalType": "string",
          "name": "name",
          "type": "string"
        },
        {
          "internalType": "uint256",
          "name": "id",
          "type": "uint256"
        },
        {
          "internalType": "uint256",
          "name": "price",
          "type": "uint256"
        }
      ],
      "stateMutability": "view",
      "type": "function"
    },
    {
      "inputs": [
        {
          "internalType": "string",
          "name": "",
          "type": "string"
        }
      ],
      "name": "categoryId",
      "outputs": [
        {
          "internalType": "uint256",
          "name": "",
          "type": "uint256"
        }
      ],
      "stateMutability": "view",
      "type": "function"
    },
    {
      "inputs": [
        {
          "internalType": "string",
          "name": "_baseURI",
          "type": "string"
        },
        {
          "internalType": "string",
          "name": "_name",
          "type": "string"
        },
        {
          "internalType": "string",
          "name": "_symbol",
          "type": "string"
        }
      ],
      "name": "initialize",
      "outputs": [],
      "stateMutability": "nonpayable",
      "type": "function"
    },
    {
      "inputs": [
        {
          "internalType": "address",
          "name": "account",
          "type": "address"
        },
        {
          "internalType": "address",
          "name": "operator",
          "type": "address"
        }
      ],
      "name": "isApprovedForAll",
      "outputs": [
        {
          "internalType": "bool",
          "name": "",
          "type": "bool"
        }
      ],
      "stateMutability": "view",
      "type": "function"
    },
    {
      "inputs": [
        {
          "internalType": "address",
          "name": "_receiver",
          "type": "address"
        },
        {
          "internalType": "string",
          "name": "_category",
          "type": "string"
        },
        {
          "internalType": "uint256",
          "name": "_quantity",
          "type": "uint256"
        }
      ],
      "name": "mint",
      "outputs": [],
      "stateMutability": "payable",
      "type": "function"
    },
    {
      "inputs": [],
      "name": "name",
      "outputs": [
        {
          "internalType": "string",
          "name": "",
          "type": "string"
        }
      ],
      "stateMutability": "view",
      "type": "function"
    },
    {
      "inputs": [],
      "name": "owner",
      "outputs": [
        {
          "internalType": "address",
          "name": "",
          "type": "address"
        }
      ],
      "stateMutability": "view",
      "type": "function"
    },
    {
      "inputs": [],
      "name": "pause",
      "outputs": [],
      "stateMutability": "nonpayable",
      "type": "function"
    },
    {
      "inputs": [],
      "name": "paused",
      "outputs": [
        {
          "internalType": "bool",
          "name": "",
          "type": "bool"
        }
      ],
      "stateMutability": "view",
      "type": "function"
    },
    {
      "inputs": [],
      "name": "renounceOwnership",
      "outputs": [],
      "stateMutability": "nonpayable",
      "type": "function"
    },
    {
      "inputs": [
        {
          "internalType": "address",
          "name": "from",
          "type": "address"
        },
        {
          "internalType": "address",
          "name": "to",
          "type": "address"
        },
        {
          "internalType": "uint256[]",
          "name": "ids",
          "type": "uint256[]"
        },
        {
          "internalType": "uint256[]",
          "name": "amounts",
          "type": "uint256[]"
        },
        {
          "internalType": "bytes",
          "name": "data",
          "type": "bytes"
        }
      ],
      "name": "safeBatchTransferFrom",
      "outputs": [],
      "stateMutability": "nonpayable",
      "type": "function"
    },
    {
      "inputs": [
        {
          "internalType": "address",
          "name": "from",
          "type": "address"
        },
        {
          "internalType": "address",
          "name": "to",
          "type": "address"
        },
        {
          "internalType": "uint256",
          "name": "id",
          "type": "uint256"
        },
        {
          "internalType": "uint256",
          "name": "amount",
          "type": "uint256"
        },
        {
          "internalType": "bytes",
          "name": "data",
          "type": "bytes"
        }
      ],
      "name": "safeTransferFrom",
      "outputs": [],
      "stateMutability": "nonpayable",
      "type": "function"
    },
    {
      "inputs": [
        {
          "internalType": "address",
          "name": "operator",
          "type": "address"
        },
        {
          "internalType": "bool",
          "name": "approved",
          "type": "bool"
        }
      ],
      "name": "setApprovalForAll",
      "outputs": [],
      "stateMutability": "nonpayable",
      "type": "function"
    },
    {
      "inputs": [
        {
          "internalType": "string",
          "name": "_category",
          "type": "string"
        },
        {
          "internalType": "uint256",
          "name": "_price",
          "type": "uint256"
        }
      ],
      "name": "setPrice",
      "outputs": [],
      "stateMutability": "nonpayable",
      "type": "function"
    },
    {
      "inputs": [
        {
          "internalType": "bytes4",
          "name": "interfaceId",
          "type": "bytes4"
        }
      ],
      "name": "supportsInterface",
      "outputs": [
        {
          "internalType": "bool",
          "name": "",
          "type": "bool"
        }
      ],
      "stateMutability": "view",
      "type": "function"
    },
    {
      "inputs": [],
      "name": "symbol",
      "outputs": [
        {
          "internalType": "string",
          "name": "",
          "type": "string"
        }
      ],
      "stateMutability": "view",
      "type": "function"
    },
    {
      "inputs": [],
      "name": "totalCategory",
      "outputs": [
        {
          "internalType": "uint256",
          "name": "",
          "type": "uint256"
        }
      ],
      "stateMutability": "view",
      "type": "function"
    },
    {
      "inputs": [
        {
          "internalType": "address",
          "name": "newOwner",
          "type": "address"
        }
      ],
      "name": "transferOwnership",
      "outputs": [],
      "stateMutability": "nonpayable",
      "type": "function"
    },
    {
      "inputs": [],
      "name": "unpause",
      "outputs": [],
      "stateMutability": "nonpayable",
      "type": "function"
    },
    {
      "inputs": [
        {
          "internalType": "uint256",
          "name": "",
          "type": "uint256"
        }
      ],
      "name": "uri",
      "outputs": [
        {
          "internalType": "string",
          "name": "",
          "type": "string"
        }
      ],
      "stateMutability": "view",
      "type": "function"
    }
  ],
  "bytecode": "0x60806040523480156200001157600080fd5b50620000226200002860201b60201c565b6200020f565b6200003a60ff6200003d60201b60201c565b50565b60008060019054906101000a900460ff1615620000c75760018260ff161480156200007b575062000079306200014360201b620016381760201c565b155b620000bd576040517f08c379a0000000000000000000000000000000000000000000000000000000008152600401620000b4906200018d565b60405180910390fd5b600090506200013e565b8160ff1660008054906101000a900460ff1660ff16106200011f576040517f08c379a000000000000000000000000000000000000000000000000000000000815260040162000116906200018d565b60405180910390fd5b816000806101000a81548160ff021916908360ff160217905550600190505b919050565b6000808273ffffffffffffffffffffffffffffffffffffffff163b119050919050565b600062000175602e83620001af565b91506200018282620001c0565b604082019050919050565b60006020820190508181036000830152620001a88162000166565b9050919050565b600082825260208201905092915050565b7f496e697469616c697a61626c653a20636f6e747261637420697320616c72656160008201527f647920696e697469616c697a6564000000000000000000000000000000000000602082015250565b614598806200021f6000396000f3fe60806040526004361061013f5760003560e01c806363a15944116100b6578063a6487c531161006f578063a6487c5314610435578063ba7aef431461045e578063c6cdbe5e1461047a578063e985e9c5146104b9578063f242432a146104f6578063f2fde38b1461051f5761013f565b806363a159441461034b578063715018a6146103885780638456cb591461039f5780638da5cb5b146103b657806395d89b41146103e1578063a22cb4651461040c5761013f565b80630e89341c116101085780630e89341c1461023d57806322e011921461027a5780632eb2c2d6146102a35780633f4ba83a146102cc5780634e1273f4146102e35780635c975abb146103205761013f565b8062fdd58e1461014457806301ffc9a714610181578063035502f2146101be57806306fdde03146101e757806307f8ab2214610212575b600080fd5b34801561015057600080fd5b5061016b60048036038101906101669190612ee1565b610548565b6040516101789190613a39565b60405180910390f35b34801561018d57600080fd5b506101a860048036038101906101a39190612f89565b610612565b6040516101b591906136e3565b60405180910390f35b3480156101ca57600080fd5b506101e560048036038101906101e091906130b3565b6106f4565b005b3480156101f357600080fd5b506101fc610889565b6040516102099190613719565b60405180910390f35b34801561021e57600080fd5b50610227610917565b6040516102349190613a39565b60405180910390f35b34801561024957600080fd5b50610264600480360381019061025f9190613107565b610924565b6040516102719190613719565b60405180910390f35b34801561028657600080fd5b506102a1600480360381019061029c91906130b3565b6109b8565b005b3480156102af57600080fd5b506102ca60048036038101906102c59190612cf0565b610b57565b005b3480156102d857600080fd5b506102e1610bf8565b005b3480156102ef57600080fd5b5061030a60048036038101906103059190612f1d565b610c7e565b604051610317919061368a565b60405180910390f35b34801561032c57600080fd5b50610335610e2f565b60405161034291906136e3565b60405180910390f35b34801561035757600080fd5b50610372600480360381019061036d9190612fdb565b610e46565b60405161037f9190613a39565b60405180910390f35b34801561039457600080fd5b5061039d610e74565b005b3480156103ab57600080fd5b506103b4610efc565b005b3480156103c257600080fd5b506103cb610f82565b6040516103d891906135ad565b60405180910390f35b3480156103ed57600080fd5b506103f6610fac565b6040516104039190613719565b60405180910390f35b34801561041857600080fd5b50610433600480360381019061042e9190612e3e565b61103a565b005b34801561044157600080fd5b5061045c6004803603810190610457919061301c565b611050565b005b61047860048036038101906104739190612e7a565b6111f2565b005b34801561048657600080fd5b506104a1600480360381019061049c9190613107565b611349565b6040516104b09392919061373b565b60405180910390f35b3480156104c557600080fd5b506104e060048036038101906104db9190612cb4565b61140b565b6040516104ed91906136e3565b60405180910390f35b34801561050257600080fd5b5061051d60048036038101906105189190612daf565b61149f565b005b34801561052b57600080fd5b5061054660048036038101906105419190612c8b565b611540565b005b60008073ffffffffffffffffffffffffffffffffffffffff168373ffffffffffffffffffffffffffffffffffffffff1614156105b9576040517f08c379a00000000000000000000000000000000000000000000000000000000081526004016105b0906137f9565b60405180910390fd5b6065600083815260200190815260200160002060008473ffffffffffffffffffffffffffffffffffffffff1673ffffffffffffffffffffffffffffffffffffffff16815260200190815260200160002054905092915050565b60007fd9b67a26000000000000000000000000000000000000000000000000000000007bffffffffffffffffffffffffffffffffffffffffffffffffffffffff1916827bffffffffffffffffffffffffffffffffffffffffffffffffffffffff191614806106dd57507f0e89341c000000000000000000000000000000000000000000000000000000007bffffffffffffffffffffffffffffffffffffffffffffffffffffffff1916827bffffffffffffffffffffffffffffffffffffffffffffffffffffffff1916145b806106ed57506106ec8261165b565b5b9050919050565b6106fc6116c5565b73ffffffffffffffffffffffffffffffffffffffff1661071a610f82565b73ffffffffffffffffffffffffffffffffffffffff1614610770576040517f08c379a000000000000000000000000000000000000000000000000000000000815260040161076790613979565b60405180910390fd5b600060fe836040516107829190613596565b90815260200160405180910390205411156107d2576040517f08c379a00000000000000000000000000000000000000000000000000000000081526004016107c9906138d9565b60405180910390fd5b6000600160fd805490506107e69190613bd8565b90508060fe846040516107f99190613596565b90815260200160405180910390208190555060fd6040518060600160405280858152602001838152602001848152509080600181540180825580915050600190039060005260206000209060030201600090919091909150600082015181600001908051906020019061086d929190612983565b5060208201518160010155604082015181600201555050505050565b60fb805461089690613d37565b80601f01602080910402602001604051908101604052809291908181526020018280546108c290613d37565b801561090f5780601f106108e45761010080835404028352916020019161090f565b820191906000526020600020905b8154815290600101906020018083116108f257829003601f168201915b505050505081565b600060fd80549050905090565b60606067805461093390613d37565b80601f016020809104026020016040519081016040528092919081815260200182805461095f90613d37565b80156109ac5780601f10610981576101008083540402835291602001916109ac565b820191906000526020600020905b81548152906001019060200180831161098f57829003601f168201915b50505050509050919050565b6109c06116c5565b73ffffffffffffffffffffffffffffffffffffffff166109de610f82565b73ffffffffffffffffffffffffffffffffffffffff1614610a34576040517f08c379a0000000000000000000000000000000000000000000000000000000008152600401610a2b90613979565b60405180910390fd5b600060fe83604051610a469190613596565b90815260200160405180910390205411610a95576040517f08c379a0000000000000000000000000000000000000000000000000000000008152600401610a8c90613879565b60405180910390fd5b6000811015610ad9576040517f08c379a0000000000000000000000000000000000000000000000000000000008152600401610ad090613899565b60405180910390fd5b8060fd600160fe85604051610aee9190613596565b908152602001604051809103902054610b079190613c2e565b81548110610b3e577f4e487b7100000000000000000000000000000000000000000000000000000000600052603260045260246000fd5b9060005260206000209060030201600201819055505050565b610b5f6116c5565b73ffffffffffffffffffffffffffffffffffffffff168573ffffffffffffffffffffffffffffffffffffffff161480610ba55750610ba485610b9f6116c5565b61140b565b5b610be4576040517f08c379a0000000000000000000000000000000000000000000000000000000008152600401610bdb90613919565b60405180910390fd5b610bf185858585856116cd565b5050505050565b610c006116c5565b73ffffffffffffffffffffffffffffffffffffffff16610c1e610f82565b73ffffffffffffffffffffffffffffffffffffffff1614610c74576040517f08c379a0000000000000000000000000000000000000000000000000000000008152600401610c6b90613979565b60405180910390fd5b610c7c611a3e565b565b60608151835114610cc4576040517f08c379a0000000000000000000000000000000000000000000000000000000008152600401610cbb906139d9565b60405180910390fd5b6000835167ffffffffffffffff811115610d07577f4e487b7100000000000000000000000000000000000000000000000000000000600052604160045260246000fd5b604051908082528060200260200182016040528015610d355781602001602082028036833780820191505090505b50905060005b8451811015610e2457610dce858281518110610d80577f4e487b7100000000000000000000000000000000000000000000000000000000600052603260045260246000fd5b6020026020010151858381518110610dc1577f4e487b7100000000000000000000000000000000000000000000000000000000600052603260045260246000fd5b6020026020010151610548565b828281518110610e07577f4e487b7100000000000000000000000000000000000000000000000000000000600052603260045260246000fd5b60200260200101818152505080610e1d90613d9a565b9050610d3b565b508091505092915050565b6000609760009054906101000a900460ff16905090565b60fe818051602081018201805184825260208301602085012081835280955050505050506000915090505481565b610e7c6116c5565b73ffffffffffffffffffffffffffffffffffffffff16610e9a610f82565b73ffffffffffffffffffffffffffffffffffffffff1614610ef0576040517f08c379a0000000000000000000000000000000000000000000000000000000008152600401610ee790613979565b60405180910390fd5b610efa6000611ae0565b565b610f046116c5565b73ffffffffffffffffffffffffffffffffffffffff16610f22610f82565b73ffffffffffffffffffffffffffffffffffffffff1614610f78576040517f08c379a0000000000000000000000000000000000000000000000000000000008152600401610f6f90613979565b60405180910390fd5b610f80611ba6565b565b600060c960009054906101000a900473ffffffffffffffffffffffffffffffffffffffff16905090565b60fc8054610fb990613d37565b80601f0160208091040260200160405190810160405280929190818152602001828054610fe590613d37565b80156110325780601f1061100757610100808354040283529160200191611032565b820191906000526020600020905b81548152906001019060200180831161101557829003601f168201915b505050505081565b61104c6110456116c5565b8383611c49565b5050565b600061105c6001611db6565b90508015611080576001600060016101000a81548160ff0219169083151502179055505b61108984611ea6565b611091611f01565b6110d76040518060400160405280600b81526020017f636f6c6c65637469626c65000000000000000000000000000000000000000000815250662386f26fc100006106f4565b61111e6040518060400160405280600a81526020017f6d656d626572736869700000000000000000000000000000000000000000000081525067016345785d8a00006106f4565b6111656040518060400160405280600681526020017f706174726f6e0000000000000000000000000000000000000000000000000000815250670de0b6b3a76400006106f4565b8260fb908051906020019061117b929190612983565b508160fc9080519060200190611192929190612983565b5080156111ec5760008060016101000a81548160ff0219169083151502179055507f7f26b83ff96e1f2b6a682f133852f6798a09c465da95921460cefb384740249860016040516111e391906136fe565b60405180910390a15b50505050565b600060fe836040516112049190613596565b90815260200160405180910390205411611253576040517f08c379a000000000000000000000000000000000000000000000000000000000815260040161124a90613879565b60405180910390fd5b60fd600160fe846040516112679190613596565b9081526020016040518091039020546112809190613c2e565b815481106112b7577f4e487b7100000000000000000000000000000000000000000000000000000000600052603260045260246000fd5b90600052602060002090600302016002015434101561130b576040517f08c379a0000000000000000000000000000000000000000000000000000000008152600401611302906137d9565b60405180910390fd5b6113448360fe8460405161131f9190613596565b9081526020016040518091039020548360405180602001604052806000815250611f5a565b505050565b60fd818154811061135957600080fd5b906000526020600020906003020160009150905080600001805461137c90613d37565b80601f01602080910402602001604051908101604052809291908181526020018280546113a890613d37565b80156113f55780601f106113ca576101008083540402835291602001916113f5565b820191906000526020600020905b8154815290600101906020018083116113d857829003601f168201915b5050505050908060010154908060020154905083565b6000606660008473ffffffffffffffffffffffffffffffffffffffff1673ffffffffffffffffffffffffffffffffffffffff16815260200190815260200160002060008373ffffffffffffffffffffffffffffffffffffffff1673ffffffffffffffffffffffffffffffffffffffff16815260200190815260200160002060009054906101000a900460ff16905092915050565b6114a76116c5565b73ffffffffffffffffffffffffffffffffffffffff168573ffffffffffffffffffffffffffffffffffffffff1614806114ed57506114ec856114e76116c5565b61140b565b5b61152c576040517f08c379a000000000000000000000000000000000000000000000000000000000815260040161152390613859565b60405180910390fd5b611539858585858561210c565b5050505050565b6115486116c5565b73ffffffffffffffffffffffffffffffffffffffff16611566610f82565b73ffffffffffffffffffffffffffffffffffffffff16146115bc576040517f08c379a00000000000000000000000000000000000000000000000000000000081526004016115b390613979565b60405180910390fd5b600073ffffffffffffffffffffffffffffffffffffffff168173ffffffffffffffffffffffffffffffffffffffff16141561162c576040517f08c379a000000000000000000000000000000000000000000000000000000000815260040161162390613819565b60405180910390fd5b61163581611ae0565b50565b6000808273ffffffffffffffffffffffffffffffffffffffff163b119050919050565b60007f01ffc9a7000000000000000000000000000000000000000000000000000000007bffffffffffffffffffffffffffffffffffffffffffffffffffffffff1916827bffffffffffffffffffffffffffffffffffffffffffffffffffffffff1916149050919050565b600033905090565b8151835114611711576040517f08c379a0000000000000000000000000000000000000000000000000000000008152600401611708906139f9565b60405180910390fd5b600073ffffffffffffffffffffffffffffffffffffffff168473ffffffffffffffffffffffffffffffffffffffff161415611781576040517f08c379a0000000000000000000000000000000000000000000000000000000008152600401611778906138f9565b60405180910390fd5b600061178b6116c5565b905061179b8187878787876123ab565b60005b845181101561199b5760008582815181106117e2577f4e487b7100000000000000000000000000000000000000000000000000000000600052603260045260246000fd5b602002602001015190506000858381518110611827577f4e487b7100000000000000000000000000000000000000000000000000000000600052603260045260246000fd5b6020026020010151905060006065600084815260200190815260200160002060008b73ffffffffffffffffffffffffffffffffffffffff1673ffffffffffffffffffffffffffffffffffffffff168152602001908152602001600020549050818110156118c9576040517f08c379a00000000000000000000000000000000000000000000000000000000081526004016118c090613959565b60405180910390fd5b8181036065600085815260200190815260200160002060008c73ffffffffffffffffffffffffffffffffffffffff1673ffffffffffffffffffffffffffffffffffffffff16815260200190815260200160002081905550816065600085815260200190815260200160002060008b73ffffffffffffffffffffffffffffffffffffffff1673ffffffffffffffffffffffffffffffffffffffff16815260200190815260200160002060008282546119809190613bd8565b925050819055505050508061199490613d9a565b905061179e565b508473ffffffffffffffffffffffffffffffffffffffff168673ffffffffffffffffffffffffffffffffffffffff168273ffffffffffffffffffffffffffffffffffffffff167f4a39dc06d4c0dbc64b70af90fd698a233a518aa5d07e595d983b8c0526c8f7fb8787604051611a129291906136ac565b60405180910390a4611a28818787878787612409565b611a36818787878787612411565b505050505050565b611a46610e2f565b611a85576040517f08c379a0000000000000000000000000000000000000000000000000000000008152600401611a7c906137b9565b60405180910390fd5b6000609760006101000a81548160ff0219169083151502179055507f5db9ee0a495bf2e6ff9c91a7834c1ba4fdd244a5e8aa4e537bd38aeae4b073aa611ac96116c5565b604051611ad691906135ad565b60405180910390a1565b600060c960009054906101000a900473ffffffffffffffffffffffffffffffffffffffff1690508160c960006101000a81548173ffffffffffffffffffffffffffffffffffffffff021916908373ffffffffffffffffffffffffffffffffffffffff1602179055508173ffffffffffffffffffffffffffffffffffffffff168173ffffffffffffffffffffffffffffffffffffffff167f8be0079c531659141344cd1fd0a4f28419497f9722a3daafe3b4186f6b6457e060405160405180910390a35050565b611bae610e2f565b15611bee576040517f08c379a0000000000000000000000000000000000000000000000000000000008152600401611be5906138b9565b60405180910390fd5b6001609760006101000a81548160ff0219169083151502179055507f62e78cea01bee320cd4e420270b5ea74000d11b0c9f74754ebdbfc544b05a258611c326116c5565b604051611c3f91906135ad565b60405180910390a1565b8173ffffffffffffffffffffffffffffffffffffffff168373ffffffffffffffffffffffffffffffffffffffff161415611cb8576040517f08c379a0000000000000000000000000000000000000000000000000000000008152600401611caf906139b9565b60405180910390fd5b80606660008573ffffffffffffffffffffffffffffffffffffffff1673ffffffffffffffffffffffffffffffffffffffff16815260200190815260200160002060008473ffffffffffffffffffffffffffffffffffffffff1673ffffffffffffffffffffffffffffffffffffffff16815260200190815260200160002060006101000a81548160ff0219169083151502179055508173ffffffffffffffffffffffffffffffffffffffff168373ffffffffffffffffffffffffffffffffffffffff167f17307eab39ab6107e8899845ad3d59bd9653f200f220920489ca2b5937696c3183604051611da991906136e3565b60405180910390a3505050565b60008060019054906101000a900460ff1615611e2d5760018260ff16148015611de55750611de330611638565b155b611e24576040517f08c379a0000000000000000000000000000000000000000000000000000000008152600401611e1b90613939565b60405180910390fd5b60009050611ea1565b8160ff1660008054906101000a900460ff1660ff1610611e82576040517f08c379a0000000000000000000000000000000000000000000000000000000008152600401611e7990613939565b60405180910390fd5b816000806101000a81548160ff021916908360ff160217905550600190505b919050565b600060019054906101000a900460ff16611ef5576040517f08c379a0000000000000000000000000000000000000000000000000000000008152600401611eec90613999565b60405180910390fd5b611efe816125f8565b50565b600060019054906101000a900460ff16611f50576040517f08c379a0000000000000000000000000000000000000000000000000000000008152600401611f4790613999565b60405180910390fd5b611f58612653565b565b600073ffffffffffffffffffffffffffffffffffffffff168473ffffffffffffffffffffffffffffffffffffffff161415611fca576040517f08c379a0000000000000000000000000000000000000000000000000000000008152600401611fc190613a19565b60405180910390fd5b6000611fd46116c5565b90506000611fe1856126b4565b90506000611fee856126b4565b9050611fff836000898585896123ab565b846065600088815260200190815260200160002060008973ffffffffffffffffffffffffffffffffffffffff1673ffffffffffffffffffffffffffffffffffffffff168152602001908152602001600020600082825461205f9190613bd8565b925050819055508673ffffffffffffffffffffffffffffffffffffffff16600073ffffffffffffffffffffffffffffffffffffffff168473ffffffffffffffffffffffffffffffffffffffff167fc3d58168c5ae7397731d063d5bbf3d657854427343f4c083240f7aacaa2d0f6289896040516120dd929190613a54565b60405180910390a46120f483600089858589612409565b6121038360008989898961277a565b50505050505050565b600073ffffffffffffffffffffffffffffffffffffffff168473ffffffffffffffffffffffffffffffffffffffff16141561217c576040517f08c379a0000000000000000000000000000000000000000000000000000000008152600401612173906138f9565b60405180910390fd5b60006121866116c5565b90506000612193856126b4565b905060006121a0856126b4565b90506121b08389898585896123ab565b60006065600088815260200190815260200160002060008a73ffffffffffffffffffffffffffffffffffffffff1673ffffffffffffffffffffffffffffffffffffffff16815260200190815260200160002054905085811015612248576040517f08c379a000000000000000000000000000000000000000000000000000000000815260040161223f90613959565b60405180910390fd5b8581036065600089815260200190815260200160002060008b73ffffffffffffffffffffffffffffffffffffffff1673ffffffffffffffffffffffffffffffffffffffff16815260200190815260200160002081905550856065600089815260200190815260200160002060008a73ffffffffffffffffffffffffffffffffffffffff1673ffffffffffffffffffffffffffffffffffffffff16815260200190815260200160002060008282546122ff9190613bd8565b925050819055508773ffffffffffffffffffffffffffffffffffffffff168973ffffffffffffffffffffffffffffffffffffffff168573ffffffffffffffffffffffffffffffffffffffff167fc3d58168c5ae7397731d063d5bbf3d657854427343f4c083240f7aacaa2d0f628a8a60405161237c929190613a54565b60405180910390a4612392848a8a86868a612409565b6123a0848a8a8a8a8a61277a565b505050505050505050565b6123b9868686868686612961565b6123c1610e2f565b15612401576040517f08c379a00000000000000000000000000000000000000000000000000000000081526004016123f890613839565b60405180910390fd5b505050505050565b505050505050565b6124308473ffffffffffffffffffffffffffffffffffffffff16611638565b156125f0578373ffffffffffffffffffffffffffffffffffffffff1663bc197c8187878686866040518663ffffffff1660e01b81526004016124769594939291906135c8565b602060405180830381600087803b15801561249057600080fd5b505af19250505080156124c157506040513d601f19601f820116820180604052508101906124be9190612fb2565b60015b612567576124cd613e70565b806308c379a0141561252a57506124e2614470565b806124ed575061252c565b806040517f08c379a00000000000000000000000000000000000000000000000000000000081526004016125219190613719565b60405180910390fd5b505b6040517f08c379a000000000000000000000000000000000000000000000000000000000815260040161255e90613779565b60405180910390fd5b63bc197c8160e01b7bffffffffffffffffffffffffffffffffffffffffffffffffffffffff1916817bffffffffffffffffffffffffffffffffffffffffffffffffffffffff1916146125ee576040517f08c379a00000000000000000000000000000000000000000000000000000000081526004016125e590613799565b60405180910390fd5b505b505050505050565b600060019054906101000a900460ff16612647576040517f08c379a000000000000000000000000000000000000000000000000000000000815260040161263e90613999565b60405180910390fd5b61265081612969565b50565b600060019054906101000a900460ff166126a2576040517f08c379a000000000000000000000000000000000000000000000000000000000815260040161269990613999565b60405180910390fd5b6126b26126ad6116c5565b611ae0565b565b60606000600167ffffffffffffffff8111156126f9577f4e487b7100000000000000000000000000000000000000000000000000000000600052604160045260246000fd5b6040519080825280602002602001820160405280156127275781602001602082028036833780820191505090505b5090508281600081518110612765577f4e487b7100000000000000000000000000000000000000000000000000000000600052603260045260246000fd5b60200260200101818152505080915050919050565b6127998473ffffffffffffffffffffffffffffffffffffffff16611638565b15612959578373ffffffffffffffffffffffffffffffffffffffff1663f23a6e6187878686866040518663ffffffff1660e01b81526004016127df959493929190613630565b602060405180830381600087803b1580156127f957600080fd5b505af192505050801561282a57506040513d601f19601f820116820180604052508101906128279190612fb2565b60015b6128d057612836613e70565b806308c379a01415612893575061284b614470565b806128565750612895565b806040517f08c379a000000000000000000000000000000000000000000000000000000000815260040161288a9190613719565b60405180910390fd5b505b6040517f08c379a00000000000000000000000000000000000000000000000000000000081526004016128c790613779565b60405180910390fd5b63f23a6e6160e01b7bffffffffffffffffffffffffffffffffffffffffffffffffffffffff1916817bffffffffffffffffffffffffffffffffffffffffffffffffffffffff191614612957576040517f08c379a000000000000000000000000000000000000000000000000000000000815260040161294e90613799565b60405180910390fd5b505b505050505050565b505050505050565b806067908051906020019061297f929190612983565b5050565b82805461298f90613d37565b90600052602060002090601f0160209004810192826129b157600085556129f8565b82601f106129ca57805160ff19168380011785556129f8565b828001600101855582156129f8579182015b828111156129f75782518255916020019190600101906129dc565b5b509050612a059190612a09565b5090565b5b80821115612a22576000816000905550600101612a0a565b5090565b6000612a39612a3484613aa2565b613a7d565b90508083825260208201905082856020860282011115612a5857600080fd5b60005b85811015612a885781612a6e8882612b7a565b845260208401935060208301925050600181019050612a5b565b5050509392505050565b6000612aa5612aa084613ace565b613a7d565b90508083825260208201905082856020860282011115612ac457600080fd5b60005b85811015612af45781612ada8882612c76565b845260208401935060208301925050600181019050612ac7565b5050509392505050565b6000612b11612b0c84613afa565b613a7d565b905082815260208101848484011115612b2957600080fd5b612b34848285613cf5565b509392505050565b6000612b4f612b4a84613b2b565b613a7d565b905082815260208101848484011115612b6757600080fd5b612b72848285613cf5565b509392505050565b600081359050612b8981614506565b92915050565b600082601f830112612ba057600080fd5b8135612bb0848260208601612a26565b91505092915050565b600082601f830112612bca57600080fd5b8135612bda848260208601612a92565b91505092915050565b600081359050612bf28161451d565b92915050565b600081359050612c0781614534565b92915050565b600081519050612c1c81614534565b92915050565b600082601f830112612c3357600080fd5b8135612c43848260208601612afe565b91505092915050565b600082601f830112612c5d57600080fd5b8135612c6d848260208601612b3c565b91505092915050565b600081359050612c858161454b565b92915050565b600060208284031215612c9d57600080fd5b6000612cab84828501612b7a565b91505092915050565b60008060408385031215612cc757600080fd5b6000612cd585828601612b7a565b9250506020612ce685828601612b7a565b9150509250929050565b600080600080600060a08688031215612d0857600080fd5b6000612d1688828901612b7a565b9550506020612d2788828901612b7a565b945050604086013567ffffffffffffffff811115612d4457600080fd5b612d5088828901612bb9565b935050606086013567ffffffffffffffff811115612d6d57600080fd5b612d7988828901612bb9565b925050608086013567ffffffffffffffff811115612d9657600080fd5b612da288828901612c22565b9150509295509295909350565b600080600080600060a08688031215612dc757600080fd5b6000612dd588828901612b7a565b9550506020612de688828901612b7a565b9450506040612df788828901612c76565b9350506060612e0888828901612c76565b925050608086013567ffffffffffffffff811115612e2557600080fd5b612e3188828901612c22565b9150509295509295909350565b60008060408385031215612e5157600080fd5b6000612e5f85828601612b7a565b9250506020612e7085828601612be3565b9150509250929050565b600080600060608486031215612e8f57600080fd5b6000612e9d86828701612b7a565b935050602084013567ffffffffffffffff811115612eba57600080fd5b612ec686828701612c4c565b9250506040612ed786828701612c76565b9150509250925092565b60008060408385031215612ef457600080fd5b6000612f0285828601612b7a565b9250506020612f1385828601612c76565b9150509250929050565b60008060408385031215612f3057600080fd5b600083013567ffffffffffffffff811115612f4a57600080fd5b612f5685828601612b8f565b925050602083013567ffffffffffffffff811115612f7357600080fd5b612f7f85828601612bb9565b9150509250929050565b600060208284031215612f9b57600080fd5b6000612fa984828501612bf8565b91505092915050565b600060208284031215612fc457600080fd5b6000612fd284828501612c0d565b91505092915050565b600060208284031215612fed57600080fd5b600082013567ffffffffffffffff81111561300757600080fd5b61301384828501612c4c565b91505092915050565b60008060006060848603121561303157600080fd5b600084013567ffffffffffffffff81111561304b57600080fd5b61305786828701612c4c565b935050602084013567ffffffffffffffff81111561307457600080fd5b61308086828701612c4c565b925050604084013567ffffffffffffffff81111561309d57600080fd5b6130a986828701612c4c565b9150509250925092565b600080604083850312156130c657600080fd5b600083013567ffffffffffffffff8111156130e057600080fd5b6130ec85828601612c4c565b92505060206130fd85828601612c76565b9150509250929050565b60006020828403121561311957600080fd5b600061312784828501612c76565b91505092915050565b600061313c8383613578565b60208301905092915050565b61315181613c62565b82525050565b600061316282613b6c565b61316c8185613b9a565b935061317783613b5c565b8060005b838110156131a857815161318f8882613130565b975061319a83613b8d565b92505060018101905061317b565b5085935050505092915050565b6131be81613c74565b82525050565b60006131cf82613b77565b6131d98185613bab565b93506131e9818560208601613d04565b6131f281613e92565b840191505092915050565b61320681613ce3565b82525050565b600061321782613b82565b6132218185613bbc565b9350613231818560208601613d04565b61323a81613e92565b840191505092915050565b600061325082613b82565b61325a8185613bcd565b935061326a818560208601613d04565b80840191505092915050565b6000613283603483613bbc565b915061328e82613eb0565b604082019050919050565b60006132a6602883613bbc565b91506132b182613eff565b604082019050919050565b60006132c9601483613bbc565b91506132d482613f4e565b602082019050919050565b60006132ec600e83613bbc565b91506132f782613f77565b602082019050919050565b600061330f602b83613bbc565b915061331a82613fa0565b604082019050919050565b6000613332602683613bbc565b915061333d82613fef565b604082019050919050565b6000613355602c83613bbc565b91506133608261403e565b604082019050919050565b6000613378602983613bbc565b91506133838261408d565b604082019050919050565b600061339b600e83613bbc565b91506133a6826140dc565b602082019050919050565b60006133be600b83613bbc565b91506133c982614105565b602082019050919050565b60006133e1601083613bbc565b91506133ec8261412e565b602082019050919050565b6000613404601683613bbc565b915061340f82614157565b602082019050919050565b6000613427602583613bbc565b915061343282614180565b604082019050919050565b600061344a603283613bbc565b9150613455826141cf565b604082019050919050565b600061346d602e83613bbc565b91506134788261421e565b604082019050919050565b6000613490602a83613bbc565b915061349b8261426d565b604082019050919050565b60006134b3602083613bbc565b91506134be826142bc565b602082019050919050565b60006134d6602b83613bbc565b91506134e1826142e5565b604082019050919050565b60006134f9602983613bbc565b915061350482614334565b604082019050919050565b600061351c602983613bbc565b915061352782614383565b604082019050919050565b600061353f602883613bbc565b915061354a826143d2565b604082019050919050565b6000613562602183613bbc565b915061356d82614421565b604082019050919050565b61358181613ccc565b82525050565b61359081613ccc565b82525050565b60006135a28284613245565b915081905092915050565b60006020820190506135c26000830184613148565b92915050565b600060a0820190506135dd6000830188613148565b6135ea6020830187613148565b81810360408301526135fc8186613157565b905081810360608301526136108185613157565b9050818103608083015261362481846131c4565b90509695505050505050565b600060a0820190506136456000830188613148565b6136526020830187613148565b61365f6040830186613587565b61366c6060830185613587565b818103608083015261367e81846131c4565b90509695505050505050565b600060208201905081810360008301526136a48184613157565b905092915050565b600060408201905081810360008301526136c68185613157565b905081810360208301526136da8184613157565b90509392505050565b60006020820190506136f860008301846131b5565b92915050565b600060208201905061371360008301846131fd565b92915050565b60006020820190508181036000830152613733818461320c565b905092915050565b60006060820190508181036000830152613755818661320c565b90506137646020830185613587565b6137716040830184613587565b949350505050565b6000602082019050818103600083015261379281613276565b9050919050565b600060208201905081810360008301526137b281613299565b9050919050565b600060208201905081810360008301526137d2816132bc565b9050919050565b600060208201905081810360008301526137f2816132df565b9050919050565b6000602082019050818103600083015261381281613302565b9050919050565b6000602082019050818103600083015261383281613325565b9050919050565b6000602082019050818103600083015261385281613348565b9050919050565b600060208201905081810360008301526138728161336b565b9050919050565b600060208201905081810360008301526138928161338e565b9050919050565b600060208201905081810360008301526138b2816133b1565b9050919050565b600060208201905081810360008301526138d2816133d4565b9050919050565b600060208201905081810360008301526138f2816133f7565b9050919050565b600060208201905081810360008301526139128161341a565b9050919050565b600060208201905081810360008301526139328161343d565b9050919050565b6000602082019050818103600083015261395281613460565b9050919050565b6000602082019050818103600083015261397281613483565b9050919050565b60006020820190508181036000830152613992816134a6565b9050919050565b600060208201905081810360008301526139b2816134c9565b9050919050565b600060208201905081810360008301526139d2816134ec565b9050919050565b600060208201905081810360008301526139f28161350f565b9050919050565b60006020820190508181036000830152613a1281613532565b9050919050565b60006020820190508181036000830152613a3281613555565b9050919050565b6000602082019050613a4e6000830184613587565b92915050565b6000604082019050613a696000830185613587565b613a766020830184613587565b9392505050565b6000613a87613a98565b9050613a938282613d69565b919050565b6000604051905090565b600067ffffffffffffffff821115613abd57613abc613e41565b5b602082029050602081019050919050565b600067ffffffffffffffff821115613ae957613ae8613e41565b5b602082029050602081019050919050565b600067ffffffffffffffff821115613b1557613b14613e41565b5b613b1e82613e92565b9050602081019050919050565b600067ffffffffffffffff821115613b4657613b45613e41565b5b613b4f82613e92565b9050602081019050919050565b6000819050602082019050919050565b600081519050919050565b600081519050919050565b600081519050919050565b6000602082019050919050565b600082825260208201905092915050565b600082825260208201905092915050565b600082825260208201905092915050565b600081905092915050565b6000613be382613ccc565b9150613bee83613ccc565b9250827fffffffffffffffffffffffffffffffffffffffffffffffffffffffffffffffff03821115613c2357613c22613de3565b5b828201905092915050565b6000613c3982613ccc565b9150613c4483613ccc565b925082821015613c5757613c56613de3565b5b828203905092915050565b6000613c6d82613cac565b9050919050565b60008115159050919050565b60007fffffffff0000000000000000000000000000000000000000000000000000000082169050919050565b600073ffffffffffffffffffffffffffffffffffffffff82169050919050565b6000819050919050565b600060ff82169050919050565b6000613cee82613cd6565b9050919050565b82818337600083830152505050565b60005b83811015613d22578082015181840152602081019050613d07565b83811115613d31576000848401525b50505050565b60006002820490506001821680613d4f57607f821691505b60208210811415613d6357613d62613e12565b5b50919050565b613d7282613e92565b810181811067ffffffffffffffff82111715613d9157613d90613e41565b5b80604052505050565b6000613da582613ccc565b91507fffffffffffffffffffffffffffffffffffffffffffffffffffffffffffffffff821415613dd857613dd7613de3565b5b600182019050919050565b7f4e487b7100000000000000000000000000000000000000000000000000000000600052601160045260246000fd5b7f4e487b7100000000000000000000000000000000000000000000000000000000600052602260045260246000fd5b7f4e487b7100000000000000000000000000000000000000000000000000000000600052604160045260246000fd5b600060033d1115613e8f5760046000803e613e8c600051613ea3565b90505b90565b6000601f19601f8301169050919050565b60008160e01c9050919050565b7f455243313135353a207472616e7366657220746f206e6f6e204552433131353560008201527f526563656976657220696d706c656d656e746572000000000000000000000000602082015250565b7f455243313135353a204552433131353552656365697665722072656a6563746560008201527f6420746f6b656e73000000000000000000000000000000000000000000000000602082015250565b7f5061757361626c653a206e6f7420706175736564000000000000000000000000600082015250565b7f5072696365206e6f74206d657421000000000000000000000000000000000000600082015250565b7f455243313135353a2062616c616e636520717565727920666f7220746865207a60008201527f65726f2061646472657373000000000000000000000000000000000000000000602082015250565b7f4f776e61626c653a206e6577206f776e657220697320746865207a65726f206160008201527f6464726573730000000000000000000000000000000000000000000000000000602082015250565b7f455243313135355061757361626c653a20746f6b656e207472616e736665722060008201527f7768696c65207061757365640000000000000000000000000000000000000000602082015250565b7f455243313135353a2063616c6c6572206973206e6f74206f776e6572206e6f7260008201527f20617070726f7665640000000000000000000000000000000000000000000000602082015250565b7f57726f6e672043617465676f7279000000000000000000000000000000000000600082015250565b7f57726f6e67205072696365000000000000000000000000000000000000000000600082015250565b7f5061757361626c653a2070617573656400000000000000000000000000000000600082015250565b7f43617465676f727920616c726561647920657869737400000000000000000000600082015250565b7f455243313135353a207472616e7366657220746f20746865207a65726f20616460008201527f6472657373000000000000000000000000000000000000000000000000000000602082015250565b7f455243313135353a207472616e736665722063616c6c6572206973206e6f742060008201527f6f776e6572206e6f7220617070726f7665640000000000000000000000000000602082015250565b7f496e697469616c697a61626c653a20636f6e747261637420697320616c72656160008201527f647920696e697469616c697a6564000000000000000000000000000000000000602082015250565b7f455243313135353a20696e73756666696369656e742062616c616e636520666f60008201527f72207472616e7366657200000000000000000000000000000000000000000000602082015250565b7f4f776e61626c653a2063616c6c6572206973206e6f7420746865206f776e6572600082015250565b7f496e697469616c697a61626c653a20636f6e7472616374206973206e6f74206960008201527f6e697469616c697a696e67000000000000000000000000000000000000000000602082015250565b7f455243313135353a2073657474696e6720617070726f76616c2073746174757360008201527f20666f722073656c660000000000000000000000000000000000000000000000602082015250565b7f455243313135353a206163636f756e747320616e6420696473206c656e67746860008201527f206d69736d617463680000000000000000000000000000000000000000000000602082015250565b7f455243313135353a2069647320616e6420616d6f756e7473206c656e6774682060008201527f6d69736d61746368000000000000000000000000000000000000000000000000602082015250565b7f455243313135353a206d696e7420746f20746865207a65726f2061646472657360008201527f7300000000000000000000000000000000000000000000000000000000000000602082015250565b600060443d101561448057614503565b614488613a98565b60043d036004823e80513d602482011167ffffffffffffffff821117156144b0575050614503565b808201805167ffffffffffffffff8111156144ce5750505050614503565b80602083010160043d0385018111156144eb575050505050614503565b6144fa82602001850186613d69565b82955050505050505b90565b61450f81613c62565b811461451a57600080fd5b50565b61452681613c74565b811461453157600080fd5b50565b61453d81613c80565b811461454857600080fd5b50565b61455481613ccc565b811461455f57600080fd5b5056fea2646970667358221220c07a98402bd556c1583d1adeddef33c12b97e37235e47471103de2c27472bc7264736f6c63430008020033",
  "linkReferences": {},
  "deployedLinkReferences": {}
}