{
  "_format": "hh-sol-artifact-1",
  "contractName": "RootFactoryclone",
  "sourceName": "contracts/RootFactoryClone.sol",
  "abi": [
    {
      "inputs": [
        {
          "internalType": "address",
          "name": "_implementation",
          "type": "address"
        }
      ],
      "stateMutability": "nonpayable",
      "type": "constructor"
    },
    {
      "inputs": [],
      "name": "RootCollectionLogic",
      "outputs": [
        {
          "internalType": "address",
          "name": "",
          "type": "address"
        }
      ],
      "stateMutability": "view",
      "type": "function"
    },
    {
      "inputs": [
        {
          "internalType": "uint256",
          "name": "",
          "type": "uint256"
        }
      ],
      "name": "clones",
      "outputs": [
        {
          "internalType": "address",
          "name": "",
          "type": "address"
        }
      ],
      "stateMutability": "view",
      "type": "function"
    },
    {
      "inputs": [
        {
          "internalType": "string",
          "name": "_baseURI",
          "type": "string"
        },
        {
          "internalType": "string",
          "name": "_name",
          "type": "string"
        },
        {
          "internalType": "string",
          "name": "_symbol",
          "type": "string"
        }
      ],
      "name": "createClone",
      "outputs": [
        {
          "internalType": "address",
          "name": "",
          "type": "address"
        }
      ],
      "stateMutability": "nonpayable",
      "type": "function"
    }
  ],
  "bytecode": "0x60a060405234801561001057600080fd5b5060405161083838038061083883398181016040528101906100329190610084565b8073ffffffffffffffffffffffffffffffffffffffff1660808173ffffffffffffffffffffffffffffffffffffffff1660601b81525050506100f6565b60008151905061007e816100df565b92915050565b60006020828403121561009657600080fd5b60006100a48482850161006f565b91505092915050565b60006100b8826100bf565b9050919050565b600073ffffffffffffffffffffffffffffffffffffffff82169050919050565b6100e8816100ad565b81146100f357600080fd5b50565b60805160601c61071d61011b60003960008181610105015261012f015261071d6000f3fe608060405234801561001057600080fd5b50600436106100415760003560e01c80630e0399161461004657806339cdd33a1461007657806360ce69f514610094575b600080fd5b610060600480360381019061005b919061041d565b6100c4565b60405161006d91906104b1565b60405180910390f35b61007e610103565b60405161008b91906104b1565b60405180910390f35b6100ae60048036038101906100a99190610386565b610127565b6040516100bb91906104b1565b60405180910390f35b600081815481106100d457600080fd5b906000526020600020016000915054906101000a900473ffffffffffffffffffffffffffffffffffffffff1681565b7f000000000000000000000000000000000000000000000000000000000000000081565b6000806101537f0000000000000000000000000000000000000000000000000000000000000000610234565b90508073ffffffffffffffffffffffffffffffffffffffff16635c6d8da1868686336040518563ffffffff1660e01b815260040161019494939291906104cc565b600060405180830381600087803b1580156101ae57600080fd5b505af11580156101c2573d6000803e3d6000fd5b505050506000819080600181540180825580915050600190039060005260206000200160009091909190916101000a81548173ffffffffffffffffffffffffffffffffffffffff021916908373ffffffffffffffffffffffffffffffffffffffff160217905550809150509392505050565b60006040517f3d602d80600a3d3981f3363d3d373d3d3d363d7300000000000000000000000081528260601b60148201527f5af43d82803e903d91602b57fd5bf3000000000000000000000000000000000060288201526037816000f0915050600073ffffffffffffffffffffffffffffffffffffffff168173ffffffffffffffffffffffffffffffffffffffff161415610304576040517f08c379a00000000000000000000000000000000000000000000000000000000081526004016102fb90610526565b60405180910390fd5b919050565b600061031c6103178461056b565b610546565b90508281526020810184848401111561033457600080fd5b61033f8482856105f4565b509392505050565b600082601f83011261035857600080fd5b8135610368848260208601610309565b91505092915050565b600081359050610380816106d0565b92915050565b60008060006060848603121561039b57600080fd5b600084013567ffffffffffffffff8111156103b557600080fd5b6103c186828701610347565b935050602084013567ffffffffffffffff8111156103de57600080fd5b6103ea86828701610347565b925050604084013567ffffffffffffffff81111561040757600080fd5b61041386828701610347565b9150509250925092565b60006020828403121561042f57600080fd5b600061043d84828501610371565b91505092915050565b61044f816105b8565b82525050565b60006104608261059c565b61046a81856105a7565b935061047a818560208601610603565b61048381610696565b840191505092915050565b600061049b6016836105a7565b91506104a6826106a7565b602082019050919050565b60006020820190506104c66000830184610446565b92915050565b600060808201905081810360008301526104e68187610455565b905081810360208301526104fa8186610455565b9050818103604083015261050e8185610455565b905061051d6060830184610446565b95945050505050565b6000602082019050818103600083015261053f8161048e565b9050919050565b6000610550610561565b905061055c8282610636565b919050565b6000604051905090565b600067ffffffffffffffff82111561058657610585610667565b5b61058f82610696565b9050602081019050919050565b600081519050919050565b600082825260208201905092915050565b60006105c3826105ca565b9050919050565b600073ffffffffffffffffffffffffffffffffffffffff82169050919050565b6000819050919050565b82818337600083830152505050565b60005b83811015610621578082015181840152602081019050610606565b83811115610630576000848401525b50505050565b61063f82610696565b810181811067ffffffffffffffff8211171561065e5761065d610667565b5b80604052505050565b7f4e487b7100000000000000000000000000000000000000000000000000000000600052604160045260246000fd5b6000601f19601f8301169050919050565b7f455243313136373a20637265617465206661696c656400000000000000000000600082015250565b6106d9816105ea565b81146106e457600080fd5b5056fea2646970667358221220c0ce3357a6413eda286d49d22ac81e96bf7c22b8f0e1d85547bbb0e9d6d2ea5a64736f6c63430008020033",
  "linkReferences": {},
  "deployedLinkReferences": {}
}